{
  "contractName": "nftCollection",
  "abi": [
    {
      "inputs": [],
      "name": "getCollection",
      "outputs": [
        {
          "internalType": "string[]",
          "name": "",
          "type": "string[]"
        }
      ],
      "stateMutability": "view",
      "type": "function"
    }
  ],
  "bytecode": "0x60806040526040518061018001604052806040518060600160405280602e815260200162000b32602e913981526020016040518060600160405280602e815260200162000a1e602e913981526020016040518060600160405280602e815260200162000a7a602e913981526020016040518060600160405280602e815260200162000ad6602e913981526020016040518060600160405280602e815260200162000aa8602e913981526020016040518060600160405280602e815260200162000b04602e913981526020016040518060600160405280602e815260200162000a4c602e913981526020016040518060600160405280602e8152602001620009f0602e913981526020016040518060600160405280602e815260200162000938602e913981526020016040518060600160405280602e8152602001620009c2602e913981526020016040518060600160405280602e815260200162000994602e913981526020016040518060600160405280602e815260200162000966602e9139815250600090600c62000194929190620001a9565b50348015620001a257600080fd5b50620005f7565b828054828255906000526020600020908101928215620001f6579160200282015b82811115620001f5578251829081620001e4919062000510565b5091602001919060010190620001ca565b5b50905062000205919062000209565b5090565b5b808211156200022d576000818162000223919062000231565b506001016200020a565b5090565b5080546200023f90620002ff565b6000825580601f1062000253575062000274565b601f01602090049060005260206000209081019062000273919062000277565b5b50565b5b808211156200029257600081600090555060010162000278565b5090565b600081519050919050565b7f4e487b7100000000000000000000000000000000000000000000000000000000600052604160045260246000fd5b7f4e487b7100000000000000000000000000000000000000000000000000000000600052602260045260246000fd5b600060028204905060018216806200031857607f821691505b6020821081036200032e576200032d620002d0565b5b50919050565b60008190508160005260206000209050919050565b60006020601f8301049050919050565b600082821b905092915050565b600060088302620003987fffffffffffffffffffffffffffffffffffffffffffffffffffffffffffffffff8262000359565b620003a4868362000359565b95508019841693508086168417925050509392505050565b6000819050919050565b6000819050919050565b6000620003f1620003eb620003e584620003bc565b620003c6565b620003bc565b9050919050565b6000819050919050565b6200040d83620003d0565b620004256200041c82620003f8565b84845462000366565b825550505050565b600090565b6200043c6200042d565b6200044981848462000402565b505050565b5b8181101562000471576200046560008262000432565b6001810190506200044f565b5050565b601f821115620004c0576200048a8162000334565b620004958462000349565b81016020851015620004a5578190505b620004bd620004b48562000349565b8301826200044e565b50505b505050565b600082821c905092915050565b6000620004e560001984600802620004c5565b1980831691505092915050565b6000620005008383620004d2565b9150826002028217905092915050565b6200051b8262000296565b67ffffffffffffffff811115620005375762000536620002a1565b5b620005438254620002ff565b6200055082828562000475565b600060209050601f83116001811462000588576000841562000573578287015190505b6200057f8582620004f2565b865550620005ef565b601f198416620005988662000334565b60005b82811015620005c2578489015182556001820191506020850194506020810190506200059b565b86831015620005e25784890151620005de601f891682620004d2565b8355505b6001600288020188555050505b505050505050565b61033180620006076000396000f3fe608060405234801561001057600080fd5b506004361061002b5760003560e01c80634251921e14610030575b600080fd5b61003861004e565b6040516100459190610279565b60405180910390f35b60606000805480602002602001604051908101604052809291908181526020016000905b8282101561011e578382906000526020600020018054610091906102ca565b80601f01602080910402602001604051908101604052809291908181526020018280546100bd906102ca565b801561010a5780601f106100df5761010080835404028352916020019161010a565b820191906000526020600020905b8154815290600101906020018083116100ed57829003601f168201915b505050505081526020019060010190610072565b50505050905090565b600081519050919050565b600082825260208201905092915050565b6000819050602082019050919050565b600081519050919050565b600082825260208201905092915050565b60005b8381101561018d578082015181840152602081019050610172565b60008484015250505050565b6000601f19601f8301169050919050565b60006101b582610153565b6101bf818561015e565b93506101cf81856020860161016f565b6101d881610199565b840191505092915050565b60006101ef83836101aa565b905092915050565b6000602082019050919050565b600061020f82610127565b6102198185610132565b93508360208202850161022b85610143565b8060005b85811015610267578484038952815161024885826101e3565b9450610253836101f7565b925060208a0199505060018101905061022f565b50829750879550505050505092915050565b600060208201905081810360008301526102938184610204565b905092915050565b7f4e487b7100000000000000000000000000000000000000000000000000000000600052602260045260246000fd5b600060028204905060018216806102e257607f821691505b6020821081036102f5576102f461029b565b5b5091905056fea2646970667358221220374944ae72ec5c22cea0e235ba5b4278e94ef82da935602ad4d443d6f7dcd40264736f6c63430008110033516d623258544c66394b4a695965767375744e41596b4663315048506a44546a386f4e45393762436e544e615176516d63656e4a464c557934414d72467a4454564c64324c64364a7a394537664579544b364854796b466b6562375a516d645375463147504451643369527159655977656a4c5661734643766768504157375379336254524457596d32516d61626e6f7679707a7837774637415872696f454d6462315765796b73614647765a33424a72554c4c6f4e7857516d6270353333427175396e5057795066425139566e3974624a7a415843714e624e62566378694431376b4d504d57516d4e5a7258377067346b56467671386870393333636659324b346a444c535464357a576e73624a4532536757516d653945384772763679564d786e427734724b38613144453277786a6d7858794b5451747253424c446e544333516d56796d716e4638557334784a546f3239764170566d7872706a73547350623944453331595342514c41434a37516d5a7662615257434e52706f7948636e636e505847566f314b597851445363584a3237616e4833786373575836516d5a6e3635316742654e37615338694e58485248625638346f43746e735639444b675863564255344670523454516d65697647525a66336652384d63347166633145356f6d4c4663695a3956644352534b697a796537473435764d516d56554d657a6d6a767935795a61777a34506b78787a644e336971756f5944413755746352546d70484354786a",
  "immutableReferences": {},
  "source": "pragma solidity >=0.4.16 <0.9.0;\n\ncontract nftCollection {\n\n\tstring[] private\tcollection = [\n\t\t\t\"QmVUMezmjvy5yZawz4PkxxzdN3iquoYDA7UtcRTmpHCTxj\",\n\t\t\t\"WQmNZrX7pg4kVFvq8hp933cfY2K4jDLSTd5zWnsbJE2SgW\",\n\t\t\t\"QmVymqnF8Us4xJTo29vApVmxrpjsTsPb9DE31YSBQLACJ7\",\n\t\t\t\"QmZn651gBeN7aS8iNXHRHbV84oCtnsV9DKgXcVBU4FpR4T\",\n\t\t\t\"QmZvbaRWCNRpoyHcncnPXGVo1KYxQDScXJ27anH3xcsWX6\",\n\t\t\t\"QmeivGRZf3fR8Mc4qfc1E5omLFciZ9VdCRSKizye7G45vM\",\n\t\t\t\"Qme9E8Grv6yVMxnBw4rK8a1DE2wxjmxXyKTQtrSBLDnTC3\",\n\t\t\t\"Qmbp533Bqu9nPWyPfBQ9Vn9tbJzAXCqNbNbVcxiD17kMPM\",\n\t\t\t\"Qmb2XTLf9KJiYevsutNAYkFc1PHPjDTj8oNE97bCnTNaQv\",\n\t\t\t\"Qmabnovypzx7wF7AXrioEMdb1WeyksaFGvZ3BJrULLoNxW\",\n\t\t\t\"QmdSuF1GPDQd3iRqYeYwejLVasFCvghPAW7Sy3bTRDWYm2\",\n\t\t\t\"QmcenJFLUy4AMrFzDTVLd2Ld6Jz9E7fEyTK6HTykFkeb7Z\"\n\t];\n\n\tfunction getCollection() view public returns(string[] memory)\n\t{\n\t\treturn (collection);\n\t}\n}",
  "sourcePath": "/Users/abarchil/Desktop/voting3.0/nftCollection/contracts/nftCollection.sol",
  "compiler": {
    "name": "solc",
    "version": "0.8.17+commit.8df45f5f.Emscripten.clang"
  },
  "schemaVersion": "3.4.11",
  "updatedAt": "2022-12-23T13:19:49.050Z",
  "devdoc": {
    "kind": "dev",
    "methods": {},
    "version": 1
  },
  "userdoc": {
    "kind": "user",
    "methods": {},
    "version": 1
  }
}