{
  "contractName": "NftVoting",
  "abi": [
    {
      "constant": false,
      "inputs": [
        {
          "name": "_nftHash",
          "type": "bytes32"
        }
      ],
      "name": "vote",
      "outputs": [],
      "payable": false,
      "stateMutability": "nonpayable",
      "type": "function"
    },
    {
      "constant": true,
      "inputs": [
        {
          "name": "_nftHash",
          "type": "bytes32"
        }
      ],
      "name": "getNumberVotes",
      "outputs": [
        {
          "name": "",
          "type": "uint256"
        }
      ],
      "payable": false,
      "stateMutability": "view",
      "type": "function"
    }
  ],
  "bytecode": "0x608060405234801561001057600080fd5b506101df806100206000396000f3fe608060405260043610610046576000357c0100000000000000000000000000000000000000000000000000000000900480630c338b761461004b578063a69beaba1461009a575b600080fd5b34801561005757600080fd5b506100846004803603602081101561006e57600080fd5b81019080803590602001909291905050506100d5565b6040518082815260200191505060405180910390f35b3480156100a657600080fd5b506100d3600480360360208110156100bd57600080fd5b81019080803590602001909291905050506100f1565b005b6000806000838152602001908152602001600020549050919050565b6000600160003373ffffffffffffffffffffffffffffffffffffffff1673ffffffffffffffffffffffffffffffffffffffff1681526020019081526020016000205414151561013f57600080fd5b60008082815260200190815260200160002060008154809291906001019190505550600160003373ffffffffffffffffffffffffffffffffffffffff1673ffffffffffffffffffffffffffffffffffffffff168152602001908152602001600020600081548092919060010191905055505056fea165627a7a7230582022c9b1f8d5bb2f985981a778c95bc4c89131d3382d327ee5bc35e77e0996db580029",
  "source": "pragma solidity >=0.5.0 <0.6.0;\n\ncontract NftVoting {\n\t\n\tmapping(bytes32 => uint) nftVotesCount;\n\tmapping(address => uint) voterCount;\n\n\tfunction vote(bytes32 _nftHash) public {\n\t\trequire(voterCount[msg.sender] == 0);\n\t\tnftVotesCount[_nftHash]++;\n\t\tvoterCount[msg.sender]++;\n\t}\n\n\n\tfunction getNumberVotes(bytes32 _nftHash) public view returns(uint) {\n\t\treturn nftVotesCount[_nftHash];\n\t}\n}\n",
  "sourcePath": "/goinfre/aer-razk/Voting3.0/VotingContract/contracts/votingcontract.sol",
  "compiler": {
    "name": "solc",
    "version": "0.5.1+commit.c8a2cb62.Emscripten.clang"
  },
  "schemaVersion": "3.4.11",
  "updatedAt": "2022-12-23T12:51:05.141Z",
  "devdoc": {
    "methods": {}
  },
  "userdoc": {
    "methods": {}
  }
}